{
  "_format": "hh-sol-artifact-1",
  "contractName": "eCourt",
  "sourceName": "contracts/eCourt.sol",
  "abi": [
    {
      "inputs": [],
      "stateMutability": "nonpayable",
      "type": "constructor"
    },
    {
      "inputs": [],
      "name": "CaseAlreadySettled",
      "type": "error"
    },
    {
      "inputs": [],
      "name": "CaseNotFound",
      "type": "error"
    },
    {
      "inputs": [],
      "name": "InsufficientFunds",
      "type": "error"
    },
    {
      "inputs": [],
      "name": "NotAuthorized",
      "type": "error"
    },
    {
      "inputs": [
        {
          "internalType": "address",
          "name": "owner",
          "type": "address"
        }
      ],
      "name": "OwnableInvalidOwner",
      "type": "error"
    },
    {
      "inputs": [
        {
          "internalType": "address",
          "name": "account",
          "type": "address"
        }
      ],
      "name": "OwnableUnauthorizedAccount",
      "type": "error"
    },
    {
      "anonymous": false,
      "inputs": [
        {
          "indexed": false,
          "internalType": "uint64",
          "name": "caseId",
          "type": "uint64"
        },
        {
          "indexed": false,
          "internalType": "address",
          "name": "plaintiff",
          "type": "address"
        },
        {
          "indexed": false,
          "internalType": "address",
          "name": "defendant",
          "type": "address"
        },
        {
          "indexed": false,
          "internalType": "string",
          "name": "caseDetails",
          "type": "string"
        }
      ],
      "name": "CaseOpened",
      "type": "event"
    },
    {
      "anonymous": false,
      "inputs": [
        {
          "indexed": false,
          "internalType": "uint64",
          "name": "caseId",
          "type": "uint64"
        },
        {
          "indexed": false,
          "internalType": "bytes",
          "name": "verdict",
          "type": "bytes"
        }
      ],
      "name": "CaseSettled",
      "type": "event"
    },
    {
      "anonymous": false,
      "inputs": [
        {
          "indexed": false,
          "internalType": "uint64",
          "name": "caseId",
          "type": "uint64"
        },
        {
          "indexed": false,
          "internalType": "address",
          "name": "submitter",
          "type": "address"
        },
        {
          "indexed": false,
          "internalType": "bytes",
          "name": "evidence",
          "type": "bytes"
        }
      ],
      "name": "EvidenceSubmitted",
      "type": "event"
    },
    {
      "anonymous": false,
      "inputs": [
        {
          "indexed": false,
          "internalType": "uint64",
          "name": "caseId",
          "type": "uint64"
        },
        {
          "indexed": false,
          "internalType": "address",
          "name": "payer",
          "type": "address"
        },
        {
          "indexed": false,
          "internalType": "uint256",
          "name": "amount",
          "type": "uint256"
        }
      ],
      "name": "FeesPaid",
      "type": "event"
    },
    {
      "anonymous": false,
      "inputs": [
        {
          "indexed": true,
          "internalType": "address",
          "name": "previousOwner",
          "type": "address"
        },
        {
          "indexed": true,
          "internalType": "address",
          "name": "newOwner",
          "type": "address"
        }
      ],
      "name": "OwnershipTransferred",
      "type": "event"
    },
    {
      "inputs": [
        {
          "internalType": "uint64",
          "name": "",
          "type": "uint64"
        }
      ],
      "name": "cases",
      "outputs": [
        {
          "internalType": "address",
          "name": "plaintiff",
          "type": "address"
        },
        {
          "internalType": "address",
          "name": "defendant",
          "type": "address"
        },
        {
          "internalType": "string",
          "name": "caseDetails",
          "type": "string"
        },
        {
          "internalType": "bool",
          "name": "isSettled",
          "type": "bool"
        },
        {
          "internalType": "uint64",
          "name": "attestationId",
          "type": "uint64"
        },
        {
          "internalType": "uint256",
          "name": "filingFee",
          "type": "uint256"
        },
        {
          "internalType": "uint256",
          "name": "settlementFee",
          "type": "uint256"
        },
        {
          "internalType": "bytes",
          "name": "verdict",
          "type": "bytes"
        }
      ],
      "stateMutability": "view",
      "type": "function"
    },
    {
      "inputs": [
        {
          "internalType": "uint64",
          "name": "caseId",
          "type": "uint64"
        }
      ],
      "name": "getCaseDetails",
      "outputs": [
        {
          "components": [
            {
              "internalType": "address",
              "name": "plaintiff",
              "type": "address"
            },
            {
              "internalType": "address",
              "name": "defendant",
              "type": "address"
            },
            {
              "internalType": "string",
              "name": "caseDetails",
              "type": "string"
            },
            {
              "internalType": "bool",
              "name": "isSettled",
              "type": "bool"
            },
            {
              "internalType": "uint64",
              "name": "attestationId",
              "type": "uint64"
            },
            {
              "internalType": "uint256",
              "name": "filingFee",
              "type": "uint256"
            },
            {
              "internalType": "uint256",
              "name": "settlementFee",
              "type": "uint256"
            },
            {
              "internalType": "bytes",
              "name": "verdict",
              "type": "bytes"
            },
            {
              "internalType": "bytes[]",
              "name": "evidenceList",
              "type": "bytes[]"
            }
          ],
          "internalType": "struct eCourt.ECaseData",
          "name": "",
          "type": "tuple"
        }
      ],
      "stateMutability": "view",
      "type": "function"
    },
    {
      "inputs": [
        {
          "internalType": "address",
          "name": "user",
          "type": "address"
        }
      ],
      "name": "getUserCases",
      "outputs": [
        {
          "internalType": "uint64[]",
          "name": "",
          "type": "uint64[]"
        }
      ],
      "stateMutability": "view",
      "type": "function"
    },
    {
      "inputs": [
        {
          "internalType": "address",
          "name": "defendant",
          "type": "address"
        },
        {
          "internalType": "string",
          "name": "caseDetails",
          "type": "string"
        },
        {
          "internalType": "uint256",
          "name": "filingFee",
          "type": "uint256"
        }
      ],
      "name": "openCase",
      "outputs": [],
      "stateMutability": "payable",
      "type": "function"
    },
    {
      "inputs": [],
      "name": "owner",
      "outputs": [
        {
          "internalType": "address",
          "name": "",
          "type": "address"
        }
      ],
      "stateMutability": "view",
      "type": "function"
    },
    {
      "inputs": [],
      "name": "renounceOwnership",
      "outputs": [],
      "stateMutability": "nonpayable",
      "type": "function"
    },
    {
      "inputs": [],
      "name": "schemaId",
      "outputs": [
        {
          "internalType": "uint64",
          "name": "",
          "type": "uint64"
        }
      ],
      "stateMutability": "view",
      "type": "function"
    },
    {
      "inputs": [
        {
          "internalType": "address",
          "name": "instance",
          "type": "address"
        }
      ],
      "name": "setSPInstance",
      "outputs": [],
      "stateMutability": "nonpayable",
      "type": "function"
    },
    {
      "inputs": [
        {
          "internalType": "uint64",
          "name": "schemaId_",
          "type": "uint64"
        }
      ],
      "name": "setSchemaID",
      "outputs": [],
      "stateMutability": "nonpayable",
      "type": "function"
    },
    {
      "inputs": [
        {
          "internalType": "uint64",
          "name": "caseId",
          "type": "uint64"
        },
        {
          "internalType": "bytes",
          "name": "verdict",
          "type": "bytes"
        },
        {
          "internalType": "uint256",
          "name": "settlementFee",
          "type": "uint256"
        }
      ],
      "name": "settleCase",
      "outputs": [],
      "stateMutability": "payable",
      "type": "function"
    },
    {
      "inputs": [],
      "name": "spInstance",
      "outputs": [
        {
          "internalType": "contract ISP",
          "name": "",
          "type": "address"
        }
      ],
      "stateMutability": "view",
      "type": "function"
    },
    {
      "inputs": [
        {
          "internalType": "uint64",
          "name": "caseId",
          "type": "uint64"
        },
        {
          "internalType": "bytes",
          "name": "evidence",
          "type": "bytes"
        }
      ],
      "name": "submitEvidence",
      "outputs": [],
      "stateMutability": "nonpayable",
      "type": "function"
    },
    {
      "inputs": [
        {
          "internalType": "address",
          "name": "newOwner",
          "type": "address"
        }
      ],
      "name": "transferOwnership",
      "outputs": [],
      "stateMutability": "nonpayable",
      "type": "function"
    },
    {
      "inputs": [
        {
          "internalType": "address",
          "name": "",
          "type": "address"
        },
        {
          "internalType": "uint256",
          "name": "",
          "type": "uint256"
        }
      ],
      "name": "userCases",
      "outputs": [
        {
          "internalType": "uint64",
          "name": "",
          "type": "uint64"
        }
      ],
      "stateMutability": "view",
      "type": "function"
    },
    {
      "inputs": [
        {
          "internalType": "address payable",
          "name": "recipient",
          "type": "address"
        },
        {
          "internalType": "uint256",
          "name": "amount",
          "type": "uint256"
        }
      ],
      "name": "withdrawFunds",
      "outputs": [],
      "stateMutability": "nonpayable",
      "type": "function"
    },
    {
      "stateMutability": "payable",
      "type": "receive"
    }
  ],
  "bytecode": "0x60806040523480156200001157600080fd5b5062000022620000af60201b60201c565b600073ffffffffffffffffffffffffffffffffffffffff168173ffffffffffffffffffffffffffffffffffffffff1603620000975760006040517f1e4fbdf70000000000000000000000000000000000000000000000000000000081526004016200008e9190620001c0565b60405180910390fd5b620000a881620000b760201b60201c565b50620001dd565b600033905090565b60008060009054906101000a900473ffffffffffffffffffffffffffffffffffffffff169050816000806101000a81548173ffffffffffffffffffffffffffffffffffffffff021916908373ffffffffffffffffffffffffffffffffffffffff1602179055508173ffffffffffffffffffffffffffffffffffffffff168173ffffffffffffffffffffffffffffffffffffffff167f8be0079c531659141344cd1fd0a4f28419497f9722a3daafe3b4186f6b6457e060405160405180910390a35050565b600073ffffffffffffffffffffffffffffffffffffffff82169050919050565b6000620001a8826200017b565b9050919050565b620001ba816200019b565b82525050565b6000602082019050620001d76000830184620001af565b92915050565b6133ab80620001ed6000396000f3fe6080604052600436106100ec5760003560e01c80638e9d660f1161008a578063a8c5dc3311610059578063a8c5dc33146102d6578063c107532914610301578063e1075ed31461032a578063f2fde38b14610367576100f3565b80638e9d660f14610210578063941dc5151461023957806398ea38e814610276578063a1c08ee114610292576100f3565b8063501ab177116100c6578063501ab1771461017557806361f100c214610191578063715018a6146101ce5780638da5cb5b146101e5576100f3565b806305ca8ee3146100f8578063075b1a0914610121578063463a65871461014c576100f3565b366100f357005b600080fd5b34801561010457600080fd5b5061011f600480360381019061011a9190611d7a565b610390565b005b34801561012d57600080fd5b506101366103c4565b6040516101439190611db6565b60405180910390f35b34801561015857600080fd5b50610173600480360381019061016e9190611f17565b6103de565b005b61018f600480360381019061018a91906120a8565b610638565b005b34801561019d57600080fd5b506101b860048036038101906101b39190611d7a565b610da5565b6040516101c591906123c8565b60405180910390f35b3480156101da57600080fd5b506101e361115c565b005b3480156101f157600080fd5b506101fa611170565b60405161020791906123f9565b60405180910390f35b34801561021c57600080fd5b5061023760048036038101906102329190612414565b611199565b005b34801561024557600080fd5b50610260600480360381019061025b9190612441565b6111e5565b60405161026d9190611db6565b60405180910390f35b610290600480360381019061028b9190612481565b611232565b005b34801561029e57600080fd5b506102b960048036038101906102b49190611d7a565b6116af565b6040516102cd9897969594939291906125a2565b60405180910390f35b3480156102e257600080fd5b506102eb611868565b6040516102f8919061268d565b60405180910390f35b34801561030d57600080fd5b50610328600480360381019061032391906126e6565b61188e565b005b34801561033657600080fd5b50610351600480360381019061034c9190612414565b611924565b60405161035e91906127d5565b60405180910390f35b34801561037357600080fd5b5061038e60048036038101906103899190612414565b6119ef565b005b610398611a75565b80600160146101000a81548167ffffffffffffffff021916908367ffffffffffffffff16021790555050565b600160149054906101000a900467ffffffffffffffff1681565b6000600260008467ffffffffffffffff1667ffffffffffffffff168152602001908152602001600020905060008160030160019054906101000a900467ffffffffffffffff1667ffffffffffffffff160361046e576040517f08c379a000000000000000000000000000000000000000000000000000000000815260040161046590612843565b60405180910390fd5b8060030160009054906101000a900460ff16156104c0576040517f08c379a00000000000000000000000000000000000000000000000000000000081526004016104b7906128af565b60405180910390fd5b8060000160009054906101000a900473ffffffffffffffffffffffffffffffffffffffff1673ffffffffffffffffffffffffffffffffffffffff16610503611afc565b73ffffffffffffffffffffffffffffffffffffffff16148061057b57508060010160009054906101000a900473ffffffffffffffffffffffffffffffffffffffff1673ffffffffffffffffffffffffffffffffffffffff16610563611afc565b73ffffffffffffffffffffffffffffffffffffffff16145b6105ba576040517f08c379a00000000000000000000000000000000000000000000000000000000081526004016105b19061291b565b60405180910390fd5b80600701829080600181540180825580915050600190039060005260206000200160009091909190915090816105f09190612b3d565b507fd6cf1d8f6218809841b3a961c8bd9f6e20ae7b3f1de29cb63ec0bed0f902a20d8361061b611afc565b8460405161062b93929190612c0f565b60405180910390a1505050565b8034101561067b576040517f08c379a000000000000000000000000000000000000000000000000000000000815260040161067290612cbf565b60405180910390fd5b6000610685611afc565b848460405160200161069993929190612d63565b60405160208183030381529060405280519060200120905060008160001c905060008190506000600260008367ffffffffffffffff1667ffffffffffffffff16815260200190815260200160002060030160019054906101000a900467ffffffffffffffff1667ffffffffffffffff1614610749576040517f08c379a000000000000000000000000000000000000000000000000000000000815260040161074090612de8565b60405180910390fd5b6000600267ffffffffffffffff81111561076657610765611dec565b5b60405190808252806020026020018201604052801561079957816020015b60608152602001906001900390816107845790505b5090506107a4611afc565b6040516020016107b491906123f9565b604051602081830303815290604052816000815181106107d7576107d6612e08565b5b6020026020010181905250866040516020016107f391906123f9565b6040516020818303038152906040528160018151811061081657610815612e08565b5b60200260200101819052506000604051806101400160405280600160149054906101000a900467ffffffffffffffff1667ffffffffffffffff168152602001600067ffffffffffffffff168152602001600067ffffffffffffffff168152602001600067ffffffffffffffff1681526020013073ffffffffffffffffffffffffffffffffffffffff168152602001600067ffffffffffffffff168152602001600060038111156108c9576108c8612e37565b5b8152602001600015158152602001838152602001886040516020016108ee9190612e66565b60405160208183030381529060405281525090506000600160009054906101000a900473ffffffffffffffffffffffffffffffffffffffff1673ffffffffffffffffffffffffffffffffffffffff1663b82916cb836040518263ffffffff1660e01b815260040161095f9190612ffa565b6020604051808303816000875af115801561097e573d6000803e3d6000fd5b505050506040513d601f19601f820116820180604052508101906109a2919061306a565b90506040518061012001604052806109b8611afc565b73ffffffffffffffffffffffffffffffffffffffff1681526020018a73ffffffffffffffffffffffffffffffffffffffff1681526020018981526020016000151581526020018267ffffffffffffffff16815260200188815260200160008152602001604051806020016040528060008152508152602001600067ffffffffffffffff811115610a4b57610a4a611dec565b5b604051908082528060200260200182016040528015610a7e57816020015b6060815260200190600190039081610a695790505b50815250600260008667ffffffffffffffff1667ffffffffffffffff16815260200190815260200160002060008201518160000160006101000a81548173ffffffffffffffffffffffffffffffffffffffff021916908373ffffffffffffffffffffffffffffffffffffffff16021790555060208201518160010160006101000a81548173ffffffffffffffffffffffffffffffffffffffff021916908373ffffffffffffffffffffffffffffffffffffffff1602179055506040820151816002019081610b4c91906130f2565b5060608201518160030160006101000a81548160ff02191690831515021790555060808201518160030160016101000a81548167ffffffffffffffff021916908367ffffffffffffffff16021790555060a0820151816004015560c0820151816005015560e0820151816006019081610bc59190612b3d565b50610100820151816007019080519060200190610be3929190611bc8565b5090505060036000610bf3611afc565b73ffffffffffffffffffffffffffffffffffffffff1673ffffffffffffffffffffffffffffffffffffffff1681526020019081526020016000208490806001815401808255809150506001900390600052602060002090600491828204019190066008029091909190916101000a81548167ffffffffffffffff021916908367ffffffffffffffff160217905550600360008a73ffffffffffffffffffffffffffffffffffffffff1673ffffffffffffffffffffffffffffffffffffffff1681526020019081526020016000208490806001815401808255809150506001900390600052602060002090600491828204019190066008029091909190916101000a81548167ffffffffffffffff021916908367ffffffffffffffff1602179055507fe4b5cb912a8554b68e04825c0d65d1a485da5fc39a1813c56bf2261fb51b439184610d3e611afc565b8b8b604051610d5094939291906131c4565b60405180910390a17f0a59a82e20a8bf6ec5975b87cb7fe14267f5fdda2ac120ea8d2560721a1cf9fd84610d82611afc565b89604051610d9293929190613210565b60405180910390a1505050505050505050565b610dad611c21565b6000600260008467ffffffffffffffff1667ffffffffffffffff168152602001908152602001600020905060008160030160019054906101000a900467ffffffffffffffff1667ffffffffffffffff1603610e3d576040517f08c379a0000000000000000000000000000000000000000000000000000000008152600401610e3490612843565b60405180910390fd5b80604051806101200160405290816000820160009054906101000a900473ffffffffffffffffffffffffffffffffffffffff1673ffffffffffffffffffffffffffffffffffffffff1673ffffffffffffffffffffffffffffffffffffffff1681526020016001820160009054906101000a900473ffffffffffffffffffffffffffffffffffffffff1673ffffffffffffffffffffffffffffffffffffffff1673ffffffffffffffffffffffffffffffffffffffff168152602001600282018054610f069061296a565b80601f0160208091040260200160405190810160405280929190818152602001828054610f329061296a565b8015610f7f5780601f10610f5457610100808354040283529160200191610f7f565b820191906000526020600020905b815481529060010190602001808311610f6257829003601f168201915b505050505081526020016003820160009054906101000a900460ff161515151581526020016003820160019054906101000a900467ffffffffffffffff1667ffffffffffffffff1667ffffffffffffffff1681526020016004820154815260200160058201548152602001600682018054610ff99061296a565b80601f01602080910402602001604051908101604052809291908181526020018280546110259061296a565b80156110725780601f1061104757610100808354040283529160200191611072565b820191906000526020600020905b81548152906001019060200180831161105557829003601f168201915b5050505050815260200160078201805480602002602001604051908101604052809291908181526020016000905b8282101561114c5783829060005260206000200180546110bf9061296a565b80601f01602080910402602001604051908101604052809291908181526020018280546110eb9061296a565b80156111385780601f1061110d57610100808354040283529160200191611138565b820191906000526020600020905b81548152906001019060200180831161111b57829003601f168201915b5050505050815260200190600101906110a0565b5050505081525050915050919050565b611164611a75565b61116e6000611b04565b565b60008060009054906101000a900473ffffffffffffffffffffffffffffffffffffffff16905090565b6111a1611a75565b80600160006101000a81548173ffffffffffffffffffffffffffffffffffffffff021916908373ffffffffffffffffffffffffffffffffffffffff16021790555050565b6003602052816000526040600020818154811061120157600080fd5b9060005260206000209060049182820401919006600802915091509054906101000a900467ffffffffffffffff1681565b61123a611a75565b6000600260008567ffffffffffffffff1667ffffffffffffffff168152602001908152602001600020905060008160030160019054906101000a900467ffffffffffffffff1667ffffffffffffffff16036112ca576040517f08c379a00000000000000000000000000000000000000000000000000000000081526004016112c190612843565b60405180910390fd5b8060030160009054906101000a900460ff161561131c576040517f08c379a0000000000000000000000000000000000000000000000000000000008152600401611313906128af565b60405180910390fd5b8134101561135f576040517f08c379a0000000000000000000000000000000000000000000000000000000008152600401611356906132b9565b60405180910390fd5b6000600267ffffffffffffffff81111561137c5761137b611dec565b5b6040519080825280602002602001820160405280156113af57816020015b606081526020019060019003908161139a5790505b5090508160000160009054906101000a900473ffffffffffffffffffffffffffffffffffffffff166040516020016113e791906123f9565b6040516020818303038152906040528160008151811061140a57611409612e08565b5b60200260200101819052508160010160009054906101000a900473ffffffffffffffffffffffffffffffffffffffff1660405160200161144a91906123f9565b6040516020818303038152906040528160018151811061146d5761146c612e08565b5b60200260200101819052506000604051806101400160405280600160149054906101000a900467ffffffffffffffff1667ffffffffffffffff1681526020018460030160019054906101000a900467ffffffffffffffff1667ffffffffffffffff168152602001600067ffffffffffffffff168152602001600067ffffffffffffffff1681526020013073ffffffffffffffffffffffffffffffffffffffff168152602001600067ffffffffffffffff1681526020016000600381111561153757611536612e37565b5b81526020016000151581526020018381526020018681525090506000600160009054906101000a900473ffffffffffffffffffffffffffffffffffffffff1673ffffffffffffffffffffffffffffffffffffffff1663b82916cb836040518263ffffffff1660e01b81526004016115ae9190612ffa565b6020604051808303816000875af11580156115cd573d6000803e3d6000fd5b505050506040513d601f19601f820116820180604052508101906115f1919061306a565b905060018460030160006101000a81548160ff0219169083151502179055508484600501819055508584600601908161162a9190612b3d565b507f6b6208970666cbd266ce2df3a54839e09cc46ee44bfb299214f5ea48a02c64e0878760405161165c9291906132d9565b60405180910390a17f0a59a82e20a8bf6ec5975b87cb7fe14267f5fdda2ac120ea8d2560721a1cf9fd8761168e611afc565b8760405161169e93929190613210565b60405180910390a150505050505050565b60026020528060005260406000206000915090508060000160009054906101000a900473ffffffffffffffffffffffffffffffffffffffff16908060010160009054906101000a900473ffffffffffffffffffffffffffffffffffffffff169080600201805461171e9061296a565b80601f016020809104026020016040519081016040528092919081815260200182805461174a9061296a565b80156117975780601f1061176c57610100808354040283529160200191611797565b820191906000526020600020905b81548152906001019060200180831161177a57829003601f168201915b5050505050908060030160009054906101000a900460ff16908060030160019054906101000a900467ffffffffffffffff16908060040154908060050154908060060180546117e59061296a565b80601f01602080910402602001604051908101604052809291908181526020018280546118119061296a565b801561185e5780601f106118335761010080835404028352916020019161185e565b820191906000526020600020905b81548152906001019060200180831161184157829003601f168201915b5050505050905088565b600160009054906101000a900473ffffffffffffffffffffffffffffffffffffffff1681565b611896611a75565b804710156118d9576040517f08c379a00000000000000000000000000000000000000000000000000000000081526004016118d090613355565b60405180910390fd5b8173ffffffffffffffffffffffffffffffffffffffff166108fc829081150290604051600060405180830381858888f1935050505015801561191f573d6000803e3d6000fd5b505050565b6060600360008373ffffffffffffffffffffffffffffffffffffffff1673ffffffffffffffffffffffffffffffffffffffff1681526020019081526020016000208054806020026020016040519081016040528092919081815260200182805480156119e357602002820191906000526020600020906000905b82829054906101000a900467ffffffffffffffff1667ffffffffffffffff168152602001906008019060208260070104928301926001038202915080841161199e5790505b50505050509050919050565b6119f7611a75565b600073ffffffffffffffffffffffffffffffffffffffff168173ffffffffffffffffffffffffffffffffffffffff1603611a695760006040517f1e4fbdf7000000000000000000000000000000000000000000000000000000008152600401611a6091906123f9565b60405180910390fd5b611a7281611b04565b50565b611a7d611afc565b73ffffffffffffffffffffffffffffffffffffffff16611a9b611170565b73ffffffffffffffffffffffffffffffffffffffff1614611afa57611abe611afc565b6040517f118cdaa7000000000000000000000000000000000000000000000000000000008152600401611af191906123f9565b60405180910390fd5b565b600033905090565b60008060009054906101000a900473ffffffffffffffffffffffffffffffffffffffff169050816000806101000a81548173ffffffffffffffffffffffffffffffffffffffff021916908373ffffffffffffffffffffffffffffffffffffffff1602179055508173ffffffffffffffffffffffffffffffffffffffff168173ffffffffffffffffffffffffffffffffffffffff167f8be0079c531659141344cd1fd0a4f28419497f9722a3daafe3b4186f6b6457e060405160405180910390a35050565b828054828255906000526020600020908101928215611c10579160200282015b82811115611c0f578251829081611bff9190612b3d565b5091602001919060010190611be8565b5b509050611c1d9190611ca5565b5090565b604051806101200160405280600073ffffffffffffffffffffffffffffffffffffffff168152602001600073ffffffffffffffffffffffffffffffffffffffff16815260200160608152602001600015158152602001600067ffffffffffffffff168152602001600081526020016000815260200160608152602001606081525090565b5b80821115611cc55760008181611cbc9190611cc9565b50600101611ca6565b5090565b508054611cd59061296a565b6000825580601f10611ce75750611d06565b601f016020900490600052602060002090810190611d059190611d09565b5b50565b5b80821115611d22576000816000905550600101611d0a565b5090565b6000604051905090565b600080fd5b600080fd5b600067ffffffffffffffff82169050919050565b611d5781611d3a565b8114611d6257600080fd5b50565b600081359050611d7481611d4e565b92915050565b600060208284031215611d9057611d8f611d30565b5b6000611d9e84828501611d65565b91505092915050565b611db081611d3a565b82525050565b6000602082019050611dcb6000830184611da7565b92915050565b600080fd5b600080fd5b6000601f19601f8301169050919050565b7f4e487b7100000000000000000000000000000000000000000000000000000000600052604160045260246000fd5b611e2482611ddb565b810181811067ffffffffffffffff82111715611e4357611e42611dec565b5b80604052505050565b6000611e56611d26565b9050611e628282611e1b565b919050565b600067ffffffffffffffff821115611e8257611e81611dec565b5b611e8b82611ddb565b9050602081019050919050565b82818337600083830152505050565b6000611eba611eb584611e67565b611e4c565b905082815260208101848484011115611ed657611ed5611dd6565b5b611ee1848285611e98565b509392505050565b600082601f830112611efe57611efd611dd1565b5b8135611f0e848260208601611ea7565b91505092915050565b60008060408385031215611f2e57611f2d611d30565b5b6000611f3c85828601611d65565b925050602083013567ffffffffffffffff811115611f5d57611f5c611d35565b5b611f6985828601611ee9565b9150509250929050565b600073ffffffffffffffffffffffffffffffffffffffff82169050919050565b6000611f9e82611f73565b9050919050565b611fae81611f93565b8114611fb957600080fd5b50565b600081359050611fcb81611fa5565b92915050565b600067ffffffffffffffff821115611fec57611feb611dec565b5b611ff582611ddb565b9050602081019050919050565b600061201561201084611fd1565b611e4c565b90508281526020810184848401111561203157612030611dd6565b5b61203c848285611e98565b509392505050565b600082601f83011261205957612058611dd1565b5b8135612069848260208601612002565b91505092915050565b6000819050919050565b61208581612072565b811461209057600080fd5b50565b6000813590506120a28161207c565b92915050565b6000806000606084860312156120c1576120c0611d30565b5b60006120cf86828701611fbc565b935050602084013567ffffffffffffffff8111156120f0576120ef611d35565b5b6120fc86828701612044565b925050604061210d86828701612093565b9150509250925092565b61212081611f93565b82525050565b600081519050919050565b600082825260208201905092915050565b60005b83811015612160578082015181840152602081019050612145565b60008484015250505050565b600061217782612126565b6121818185612131565b9350612191818560208601612142565b61219a81611ddb565b840191505092915050565b60008115159050919050565b6121ba816121a5565b82525050565b6121c981611d3a565b82525050565b6121d881612072565b82525050565b600081519050919050565b600082825260208201905092915050565b6000612205826121de565b61220f81856121e9565b935061221f818560208601612142565b61222881611ddb565b840191505092915050565b600081519050919050565b600082825260208201905092915050565b6000819050602082019050919050565b600061226b83836121fa565b905092915050565b6000602082019050919050565b600061228b82612233565b612295818561223e565b9350836020820285016122a78561224f565b8060005b858110156122e357848403895281516122c4858261225f565b94506122cf83612273565b925060208a019950506001810190506122ab565b50829750879550505050505092915050565b60006101208301600083015161230e6000860182612117565b5060208301516123216020860182612117565b5060408301518482036040860152612339828261216c565b915050606083015161234e60608601826121b1565b50608083015161236160808601826121c0565b5060a083015161237460a08601826121cf565b5060c083015161238760c08601826121cf565b5060e083015184820360e086015261239f82826121fa565b9150506101008301518482036101008601526123bb8282612280565b9150508091505092915050565b600060208201905081810360008301526123e281846122f5565b905092915050565b6123f381611f93565b82525050565b600060208201905061240e60008301846123ea565b92915050565b60006020828403121561242a57612429611d30565b5b600061243884828501611fbc565b91505092915050565b6000806040838503121561245857612457611d30565b5b600061246685828601611fbc565b925050602061247785828601612093565b9150509250929050565b60008060006060848603121561249a57612499611d30565b5b60006124a886828701611d65565b935050602084013567ffffffffffffffff8111156124c9576124c8611d35565b5b6124d586828701611ee9565b92505060406124e686828701612093565b9150509250925092565b600082825260208201905092915050565b600061250c82612126565b61251681856124f0565b9350612526818560208601612142565b61252f81611ddb565b840191505092915050565b612543816121a5565b82525050565b61255281612072565b82525050565b600082825260208201905092915050565b6000612574826121de565b61257e8185612558565b935061258e818560208601612142565b61259781611ddb565b840191505092915050565b6000610100820190506125b8600083018b6123ea565b6125c5602083018a6123ea565b81810360408301526125d78189612501565b90506125e6606083018861253a565b6125f36080830187611da7565b61260060a0830186612549565b61260d60c0830185612549565b81810360e083015261261f8184612569565b90509998505050505050505050565b6000819050919050565b600061265361264e61264984611f73565b61262e565b611f73565b9050919050565b600061266582612638565b9050919050565b60006126778261265a565b9050919050565b6126878161266c565b82525050565b60006020820190506126a2600083018461267e565b92915050565b60006126b382611f73565b9050919050565b6126c3816126a8565b81146126ce57600080fd5b50565b6000813590506126e0816126ba565b92915050565b600080604083850312156126fd576126fc611d30565b5b600061270b858286016126d1565b925050602061271c85828601612093565b9150509250929050565b600081519050919050565b600082825260208201905092915050565b6000819050602082019050919050565b600061275e83836121c0565b60208301905092915050565b6000602082019050919050565b600061278282612726565b61278c8185612731565b935061279783612742565b8060005b838110156127c85781516127af8882612752565b97506127ba8361276a565b92505060018101905061279b565b5085935050505092915050565b600060208201905081810360008301526127ef8184612777565b905092915050565b7f43617365206e6f7420666f756e64000000000000000000000000000000000000600082015250565b600061282d600e836124f0565b9150612838826127f7565b602082019050919050565b6000602082019050818103600083015261285c81612820565b9050919050565b7f4361736520616c726561647920736574746c6564000000000000000000000000600082015250565b60006128996014836124f0565b91506128a482612863565b602082019050919050565b600060208201905081810360008301526128c88161288c565b9050919050565b7f4e6f7420617574686f72697a6564000000000000000000000000000000000000600082015250565b6000612905600e836124f0565b9150612910826128cf565b602082019050919050565b60006020820190508181036000830152612934816128f8565b9050919050565b7f4e487b7100000000000000000000000000000000000000000000000000000000600052602260045260246000fd5b6000600282049050600182168061298257607f821691505b6020821081036129955761299461293b565b5b50919050565b60008190508160005260206000209050919050565b60006020601f8301049050919050565b600082821b905092915050565b6000600883026129fd7fffffffffffffffffffffffffffffffffffffffffffffffffffffffffffffffff826129c0565b612a0786836129c0565b95508019841693508086168417925050509392505050565b6000612a3a612a35612a3084612072565b61262e565b612072565b9050919050565b6000819050919050565b612a5483612a1f565b612a68612a6082612a41565b8484546129cd565b825550505050565b600090565b612a7d612a70565b612a88818484612a4b565b505050565b5b81811015612aac57612aa1600082612a75565b600181019050612a8e565b5050565b601f821115612af157612ac28161299b565b612acb846129b0565b81016020851015612ada578190505b612aee612ae6856129b0565b830182612a8d565b50505b505050565b600082821c905092915050565b6000612b1460001984600802612af6565b1980831691505092915050565b6000612b2d8383612b03565b9150826002028217905092915050565b612b46826121de565b67ffffffffffffffff811115612b5f57612b5e611dec565b5b612b69825461296a565b612b74828285612ab0565b600060209050601f831160018114612ba75760008415612b95578287015190505b612b9f8582612b21565b865550612c07565b601f198416612bb58661299b565b60005b82811015612bdd57848901518255600182019150602085019450602081019050612bb8565b86831015612bfa5784890151612bf6601f891682612b03565b8355505b6001600288020188555050505b505050505050565b6000606082019050612c246000830186611da7565b612c3160208301856123ea565b8181036040830152612c438184612569565b9050949350505050565b7f496e73756666696369656e742066756e647320666f722066696c696e6720666560008201527f6500000000000000000000000000000000000000000000000000000000000000602082015250565b6000612ca96021836124f0565b9150612cb482612c4d565b604082019050919050565b60006020820190508181036000830152612cd881612c9c565b9050919050565b60008160601b9050919050565b6000612cf782612cdf565b9050919050565b6000612d0982612cec565b9050919050565b612d21612d1c82611f93565b612cfe565b82525050565b600081905092915050565b6000612d3d82612126565b612d478185612d27565b9350612d57818560208601612142565b80840191505092915050565b6000612d6f8286612d10565b601482019150612d7f8285612d10565b601482019150612d8f8284612d32565b9150819050949350505050565b7f4361736520616c72656164792065786973747300000000000000000000000000600082015250565b6000612dd26013836124f0565b9150612ddd82612d9c565b602082019050919050565b60006020820190508181036000830152612e0181612dc5565b9050919050565b7f4e487b7100000000000000000000000000000000000000000000000000000000600052603260045260246000fd5b7f4e487b7100000000000000000000000000000000000000000000000000000000600052602160045260246000fd5b60006020820190508181036000830152612e808184612501565b905092915050565b60048110612e9957612e98612e37565b5b50565b6000819050612eaa82612e88565b919050565b6000612eba82612e9c565b9050919050565b612eca81612eaf565b82525050565b600061014083016000830151612ee960008601826121c0565b506020830151612efc60208601826121c0565b506040830151612f0f60408601826121c0565b506060830151612f2260608601826121c0565b506080830151612f356080860182612117565b5060a0830151612f4860a08601826121c0565b5060c0830151612f5b60c0860182612ec1565b5060e0830151612f6e60e08601826121b1565b50610100830151848203610100860152612f888282612280565b915050610120830151848203610120860152612fa482826121fa565b9150508091505092915050565b50565b6000612fc16000836124f0565b9150612fcc82612fb1565b600082019050919050565b6000612fe4600083612558565b9150612fef82612fb1565b600082019050919050565b600060808201905081810360008301526130148184612ed0565b9050818103602083015261302781612fb4565b9050818103604083015261303a81612fd7565b9050818103606083015261304d81612fd7565b905092915050565b60008151905061306481611d4e565b92915050565b6000602082840312156130805761307f611d30565b5b600061308e84828501613055565b91505092915050565b60008190508160005260206000209050919050565b601f8211156130ed576130be81613097565b6130c7846129b0565b810160208510156130d6578190505b6130ea6130e2856129b0565b830182612a8d565b50505b505050565b6130fb82612126565b67ffffffffffffffff81111561311457613113611dec565b5b61311e825461296a565b6131298282856130ac565b600060209050601f83116001811461315c576000841561314a578287015190505b6131548582612b21565b8655506131bc565b601f19841661316a86613097565b60005b828110156131925784890151825560018201915060208501945060208101905061316d565b868310156131af57848901516131ab601f891682612b03565b8355505b6001600288020188555050505b505050505050565b60006080820190506131d96000830187611da7565b6131e660208301866123ea565b6131f360408301856123ea565b81810360608301526132058184612501565b905095945050505050565b60006060820190506132256000830186611da7565b61323260208301856123ea565b61323f6040830184612549565b949350505050565b7f496e73756666696369656e742066756e647320666f7220736574746c656d656e60008201527f7420666565000000000000000000000000000000000000000000000000000000602082015250565b60006132a36025836124f0565b91506132ae82613247565b604082019050919050565b600060208201905081810360008301526132d281613296565b9050919050565b60006040820190506132ee6000830185611da7565b81810360208301526133008184612569565b90509392505050565b7f496e73756666696369656e7420636f6e74726163742062616c616e6365000000600082015250565b600061333f601d836124f0565b915061334a82613309565b602082019050919050565b6000602082019050818103600083015261336e81613332565b905091905056fea2646970667358221220a49b2d97be8db74950fec7b1d285b1ba9a8adb7e1add653902a6bd3573be5e1764736f6c63430008180033",
  "linkReferences": {},
  "deployedLinkReferences": {}
}